:020000040800F2
:10000000880600208901000891010008930100087A
:100010009501000897010008990100080000000000
:100020000000000000000000000000009B0100082C
:100030009D010008000000009F010008A1010008C8
:10004000A3010008A3010008A3010008A301000800
:10005000A3010008A3010008A3010008A3010008F0
:10006000A3010008A3010008A3010008A3010008E0
:10007000A3010008A3010008A3010008A3010008D0
:10008000A3010008A3010008A3010008A3010008C0
:10009000A3010008A3010008A3010008A3010008B0
:1000A000A3010008A3010008A3010008A3010008A0
:1000B000A3010008A301000800000000A30100083C
:1000C000A30100080000000000000000A3010008D8
:1000D00000000000A3010008A301000800000000C8
:1000E000A3010008A3010008A301000800F002F822
:1000F00000F03AF80AA090E8000C82448344AAF188
:100100000107DA4501D100F02FF8AFF2090EBAE885
:100110000F0013F0010F18BFFB1A43F0010318473B
:10012000E004000000050000103A24BF78C878C140
:10013000FAD8520724BF30C830C144BF04680C60ED
:10014000704700000023002400250026103A28BF35
:1001500078C1FBD8520728BF30C148BF0B60704739
:100160001FB51FBD10B510BD00F013FA1146FFF703
:10017000F7FF00F09CF800F031FA03B4FFF7F2FF4C
:1001800003BC00F035FA00000948804709480047E1
:10019000FEE7FEE7FEE7FEE7FEE7FEE7FEE7FEE737
:1001A000FEE7FEE704480549054A064B7047000094
:1001B000C9010008ED000008880000208806002022
:1001C00088020020880200207047000000BFA74975
:1001D000098811F0800FFAD0A449091D08807047E2
:1001E00000B5024603E01078FFF7F0FF521C1078CC
:1001F0000028F8D100BD00BF9C48008810F0200FF7
:10020000FAD09A48001D0088C0B2704710B5024667
:100210000B46002106E0505C5C5CA04201D000204F
:1002200010BD491C505C10B1585C0028F3D1505CE3
:1002300018B9585C08B90120F2E70020F0E78C48B3
:10024000C06820F400508A49C86070478848C06878
:1002500040F400508649C86070478548C06820F463
:1002600080408349C86070478148C06840F480403E
:100270007F49C86070477F48006840F001007D49B1
:10028000086070477B48006820F0010079490860E9
:1002900070477848006840F002007649086070476F
:1002A0007448006820F00200724908607047724884
:1002B000806944F21D0108436F4988616C484068B9
:1002C00020F470006A4948600846406840F4001015
:1002D00048600846406820F0706048600846406802
:1002E00040F00070486063480C38006820F00F0050
:1002F00060490C3908600846006840F00200086058
:100300000846006820F0F00008600846006840F0E9
:10031000200008605948006820F0F0005749086044
:100320000846006840F0B00008600846006820F405
:10033000706008600846006840F48060086040F221
:1003400041304A4908310880081D008840F40050B7
:10035000091D08800846008840F00400088008460F
:10036000008840F00800088045A0FFF739FF7BE0D7
:10037000FFF741FF04460D2C6CD100204849494A43
:100380001268885448A14648FFF740FF28B1FFF79C
:1003900056FF48A0FFF724FF58E049A14048FFF767
:1003A00035FF28B1FFF752FF47A0FFF719FF4DE0D7
:1003B00048A13B48FFF72AFF28B1FFF74EFF48A0AE
:1003C000FFF70EFF42E049A13548FFF71FFF28B1B4
:1003D000FFF74AFF47A0FFF703FF37E048A1304887
:1003E000FFF714FF28B1FFF746FF48A0FFF7F8FE1C
:1003F0002CE049A12A48FFF709FF28B1FFF742FF87
:1004000048A0FFF7EDFE21E04AA12548FFF7FEFED8
:1004100028B1FFF73EFF4AA0FFF7E2FE16E04BA12E
:100420001F48FFF7F3FE28B1FFF73AFF4AA0FFF796
:10043000D7FE0BE04BA11A48FFF7E8FE18B14BA01E
:10044000FFF7CEFE02E04CA0FFF7CAFE00201549E0
:10045000086008E0124813490968445411480068CC
:10046000401C1049086000BF82E7000000380140CE
:10047000001001400C0C0140001002400408014033
:1004800053544D333220486F6D65204175746F6D44
:100490006174696F6E2052656164790D0A00000015
:1004A00004000020000000204C454431204F464607
:1004B000000000004C454431204F46460D0A000024
:1004C0004C454431204F4E004C454431204F4E0D99
:1004D0000A0000004C454432204F46460000000010
:1004E0004C454432204F46460D0A00004C454432EC
:1004F000204F4E004C454432204F4E0D0A00000064
:1005000042555A5A4552204F4E00000042555A5A01
:100510004552204F4E0D0A0042555A5A4552204F1F
:100520004646000042555A5A4552204F46460D0A4B
:10053000000000004D4F544F52204F4E000000006D
:100540004D4F544F52204F4E0D0A00004D4F544F07
:1005500052204F46460000004D4F544F52204F4608
:10056000460D0A00535441545553000053595354F7
:10057000454D204F4B0D0A00494E56414C494420F1
:10058000434F4D4D414E440D0A00000070477047E7
:100590007047754600F028F8AE4605006946534698
:1005A00020F00700854618B020B5FFF7FBFDBDE839
:1005B00020404FF000064FF000074FF000084FF0CA
:1005C000000B21F00701AC46ACE8C009ACE8C0095B
:1005D000ACE8C009ACE8C0098D4670470446AFF3EB
:1005E00000802046FFF7C9FD004870472400002026
:1005F00001491820ABBEFEE726000200704700004C
:100600002006000800000020040000002801000867
:1006100024060008040000208406000044010008AD
:0406200000000000D6
:040000050800018965
:00000001FF
